{
  "_format": "hh-sol-artifact-1",
  "contractName": "Fundraiser",
  "sourceName": "contracts/Fundraiser.sol",
  "abi": [
    {
      "inputs": [],
      "stateMutability": "nonpayable",
      "type": "constructor"
    },
    {
      "inputs": [
        {
          "internalType": "address",
          "name": "",
          "type": "address"
        }
      ],
      "name": "contributions",
      "outputs": [
        {
          "internalType": "uint256",
          "name": "",
          "type": "uint256"
        }
      ],
      "stateMutability": "view",
      "type": "function"
    },
    {
      "inputs": [
        {
          "internalType": "string",
          "name": "_ipfsLink",
          "type": "string"
        }
      ],
      "name": "createPost",
      "outputs": [],
      "stateMutability": "payable",
      "type": "function"
    },
    {
      "inputs": [],
      "name": "getAllPosts",
      "outputs": [
        {
          "components": [
            {
              "internalType": "string",
              "name": "ipfsLink",
              "type": "string"
            },
            {
              "internalType": "address payable",
              "name": "author",
              "type": "address"
            },
            {
              "internalType": "uint256",
              "name": "timestamp",
              "type": "uint256"
            },
            {
              "internalType": "uint256",
              "name": "total",
              "type": "uint256"
            },
            {
              "internalType": "uint256",
              "name": "amountReceived",
              "type": "uint256"
            },
            {
              "internalType": "uint256",
              "name": "id",
              "type": "uint256"
            },
            {
              "internalType": "address payable[]",
              "name": "backers",
              "type": "address[]"
            }
          ],
          "internalType": "struct Fundraiser.Post[]",
          "name": "",
          "type": "tuple[]"
        }
      ],
      "stateMutability": "view",
      "type": "function"
    },
    {
      "inputs": [
        {
          "internalType": "address",
          "name": "_address",
          "type": "address"
        }
      ],
      "name": "getNumberOfPosts",
      "outputs": [
        {
          "internalType": "uint256",
          "name": "",
          "type": "uint256"
        }
      ],
      "stateMutability": "view",
      "type": "function"
    },
    {
      "inputs": [
        {
          "internalType": "address",
          "name": "_address",
          "type": "address"
        }
      ],
      "name": "getYourContributions",
      "outputs": [
        {
          "internalType": "uint256",
          "name": "",
          "type": "uint256"
        }
      ],
      "stateMutability": "view",
      "type": "function"
    },
    {
      "inputs": [],
      "name": "getYourCreatedPosts",
      "outputs": [
        {
          "components": [
            {
              "internalType": "string",
              "name": "ipfsLink",
              "type": "string"
            },
            {
              "internalType": "address payable",
              "name": "author",
              "type": "address"
            },
            {
              "internalType": "uint256",
              "name": "timestamp",
              "type": "uint256"
            },
            {
              "internalType": "uint256",
              "name": "total",
              "type": "uint256"
            },
            {
              "internalType": "uint256",
              "name": "amountReceived",
              "type": "uint256"
            },
            {
              "internalType": "uint256",
              "name": "id",
              "type": "uint256"
            },
            {
              "internalType": "address payable[]",
              "name": "backers",
              "type": "address[]"
            }
          ],
          "internalType": "struct Fundraiser.Post[]",
          "name": "",
          "type": "tuple[]"
        }
      ],
      "stateMutability": "view",
      "type": "function"
    },
    {
      "inputs": [
        {
          "internalType": "uint256",
          "name": "_id",
          "type": "uint256"
        }
      ],
      "name": "getYourEarnings",
      "outputs": [
        {
          "internalType": "uint256",
          "name": "",
          "type": "uint256"
        }
      ],
      "stateMutability": "view",
      "type": "function"
    },
    {
      "inputs": [
        {
          "internalType": "address",
          "name": "_address",
          "type": "address"
        }
      ],
      "name": "getYourProfit",
      "outputs": [
        {
          "internalType": "uint256",
          "name": "",
          "type": "uint256"
        }
      ],
      "stateMutability": "view",
      "type": "function"
    },
    {
      "inputs": [
        {
          "internalType": "address",
          "name": "",
          "type": "address"
        }
      ],
      "name": "numberOfPosts",
      "outputs": [
        {
          "internalType": "uint256",
          "name": "",
          "type": "uint256"
        }
      ],
      "stateMutability": "view",
      "type": "function"
    },
    {
      "inputs": [
        {
          "internalType": "uint256",
          "name": "",
          "type": "uint256"
        },
        {
          "internalType": "address",
          "name": "",
          "type": "address"
        }
      ],
      "name": "postContributions",
      "outputs": [
        {
          "internalType": "uint256",
          "name": "",
          "type": "uint256"
        }
      ],
      "stateMutability": "view",
      "type": "function"
    },
    {
      "inputs": [
        {
          "internalType": "uint256",
          "name": "",
          "type": "uint256"
        },
        {
          "internalType": "address",
          "name": "",
          "type": "address"
        }
      ],
      "name": "postEarnings",
      "outputs": [
        {
          "internalType": "uint256",
          "name": "",
          "type": "uint256"
        }
      ],
      "stateMutability": "view",
      "type": "function"
    },
    {
      "inputs": [
        {
          "internalType": "uint256",
          "name": "",
          "type": "uint256"
        }
      ],
      "name": "posts",
      "outputs": [
        {
          "internalType": "string",
          "name": "ipfsLink",
          "type": "string"
        },
        {
          "internalType": "address payable",
          "name": "author",
          "type": "address"
        },
        {
          "internalType": "uint256",
          "name": "timestamp",
          "type": "uint256"
        },
        {
          "internalType": "uint256",
          "name": "total",
          "type": "uint256"
        },
        {
          "internalType": "uint256",
          "name": "amountReceived",
          "type": "uint256"
        },
        {
          "internalType": "uint256",
          "name": "id",
          "type": "uint256"
        }
      ],
      "stateMutability": "view",
      "type": "function"
    },
    {
      "inputs": [
        {
          "internalType": "address",
          "name": "",
          "type": "address"
        }
      ],
      "name": "profit",
      "outputs": [
        {
          "internalType": "uint256",
          "name": "",
          "type": "uint256"
        }
      ],
      "stateMutability": "view",
      "type": "function"
    },
    {
      "inputs": [],
      "name": "royalty",
      "outputs": [
        {
          "internalType": "uint256",
          "name": "",
          "type": "uint256"
        }
      ],
      "stateMutability": "view",
      "type": "function"
    },
    {
      "inputs": [
        {
          "internalType": "uint256",
          "name": "_id",
          "type": "uint256"
        }
      ],
      "name": "sharePost",
      "outputs": [],
      "stateMutability": "payable",
      "type": "function"
    }
  ],
  "bytecode": "0x6080604052601d60035534801561001557600080fd5b5060016000819055506126388061002d6000396000f3fe6080604052600436106100e85760003560e01c806378d167df1161008a578063c291bf8d11610059578063c291bf8d1461035b578063c7303c6114610398578063efc23e44146103b4578063f5d76320146103f1576100e8565b806378d167df146102795780638bb68aeb146102b657806392020245146102f3578063bbb940e214610330576100e8565b806329ee566c116100c657806329ee566c146101a957806330561100146101d45780633959ee34146101ff57806342e94c901461023c576100e8565b806302550e4d146100ed5780630b1e7f831461012a578063105e38231461016c575b600080fd5b3480156100f957600080fd5b50610114600480360381019061010f9190611cb9565b61040d565b604051610121919061212b565b60405180910390f35b34801561013657600080fd5b50610151600480360381019061014c9190611d23565b610425565b60405161016396959493929190612063565b60405180910390f35b34801561017857600080fd5b50610193600480360381019061018e9190611d4c565b610519565b6040516101a0919061212b565b60405180910390f35b3480156101b557600080fd5b506101be61053e565b6040516101cb919061212b565b60405180910390f35b3480156101e057600080fd5b506101e9610544565b6040516101f69190612041565b60405180910390f35b34801561020b57600080fd5b5061022660048036038101906102219190611d23565b610741565b604051610233919061212b565b60405180910390f35b34801561024857600080fd5b50610263600480360381019061025e9190611cb9565b61079b565b604051610270919061212b565b60405180910390f35b34801561028557600080fd5b506102a0600480360381019061029b9190611cb9565b6107b3565b6040516102ad919061212b565b60405180910390f35b3480156102c257600080fd5b506102dd60048036038101906102d89190611cb9565b6107fc565b6040516102ea919061212b565b60405180910390f35b3480156102ff57600080fd5b5061031a60048036038101906103159190611cb9565b610845565b604051610327919061212b565b60405180910390f35b34801561033c57600080fd5b5061034561088e565b6040516103529190612041565b60405180910390f35b34801561036757600080fd5b50610382600480360381019061037d9190611d4c565b610c27565b60405161038f919061212b565b60405180910390f35b6103b260048036038101906103ad9190611ce2565b610c4c565b005b3480156103c057600080fd5b506103db60048036038101906103d69190611cb9565b610eea565b6040516103e8919061212b565b60405180910390f35b61040b60048036038101906104069190611d23565b610f02565b005b60056020528060005260406000206000915090505481565b6002818154811061043557600080fd5b9060005260206000209060070201600091509050806000018054610458906123e0565b80601f0160208091040260200160405190810160405280929190818152602001828054610484906123e0565b80156104d15780601f106104a6576101008083540402835291602001916104d1565b820191906000526020600020905b8154815290600101906020018083116104b457829003601f168201915b5050505050908060010160009054906101000a900473ffffffffffffffffffffffffffffffffffffffff16908060020154908060030154908060040154908060050154905086565b6006602052816000526040600020602052806000526040600020600091509150505481565b60035481565b60606002805480602002602001604051908101604052809291908181526020016000905b8282101561073857838290600052602060002090600702016040518060e001604052908160008201805461059b906123e0565b80601f01602080910402602001604051908101604052809291908181526020018280546105c7906123e0565b80156106145780601f106105e957610100808354040283529160200191610614565b820191906000526020600020905b8154815290600101906020018083116105f757829003601f168201915b505050505081526020016001820160009054906101000a900473ffffffffffffffffffffffffffffffffffffffff1673ffffffffffffffffffffffffffffffffffffffff1673ffffffffffffffffffffffffffffffffffffffff168152602001600282015481526020016003820154815260200160048201548152602001600582015481526020016006820180548060200260200160405190810160405280929190818152602001828054801561072057602002820191906000526020600020905b8160009054906101000a900473ffffffffffffffffffffffffffffffffffffffff1673ffffffffffffffffffffffffffffffffffffffff16815260200190600101908083116106d6575b50505050508152505081526020019060010190610568565b50505050905090565b60006007600083815260200190815260200160002060003373ffffffffffffffffffffffffffffffffffffffff1673ffffffffffffffffffffffffffffffffffffffff168152602001908152602001600020549050919050565b60046020528060005260406000206000915090505481565b6000600860008373ffffffffffffffffffffffffffffffffffffffff1673ffffffffffffffffffffffffffffffffffffffff168152602001908152602001600020549050919050565b6000600460008373ffffffffffffffffffffffffffffffffffffffff1673ffffffffffffffffffffffffffffffffffffffff168152602001908152602001600020549050919050565b6000600560008373ffffffffffffffffffffffffffffffffffffffff1673ffffffffffffffffffffffffffffffffffffffff168152602001908152602001600020549050919050565b6060600061089c600161194c565b67ffffffffffffffff8111156108db577f4e487b7100000000000000000000000000000000000000000000000000000000600052604160045260246000fd5b60405190808252806020026020018201604052801561091457816020015b6109016119c8565b8152602001906001900390816108f95790505b5090506000805b600280549050811015610c1e573373ffffffffffffffffffffffffffffffffffffffff1660028281548110610979577f4e487b7100000000000000000000000000000000000000000000000000000000600052603260045260246000fd5b906000526020600020906007020160010160009054906101000a900473ffffffffffffffffffffffffffffffffffffffff1673ffffffffffffffffffffffffffffffffffffffff161415610c0b5760028181548110610a01577f4e487b7100000000000000000000000000000000000000000000000000000000600052603260045260246000fd5b90600052602060002090600702016040518060e0016040529081600082018054610a2a906123e0565b80601f0160208091040260200160405190810160405280929190818152602001828054610a56906123e0565b8015610aa35780601f10610a7857610100808354040283529160200191610aa3565b820191906000526020600020905b815481529060010190602001808311610a8657829003601f168201915b505050505081526020016001820160009054906101000a900473ffffffffffffffffffffffffffffffffffffffff1673ffffffffffffffffffffffffffffffffffffffff1673ffffffffffffffffffffffffffffffffffffffff1681526020016002820154815260200160038201548152602001600482015481526020016005820154815260200160068201805480602002602001604051908101604052809291908181526020018280548015610baf57602002820191906000526020600020905b8160009054906101000a900473ffffffffffffffffffffffffffffffffffffffff1673ffffffffffffffffffffffffffffffffffffffff1681526020019060010190808311610b65575b505050505081525050838381518110610bf1577f4e487b7100000000000000000000000000000000000000000000000000000000600052603260045260246000fd5b60200260200101819052508180610c0790612443565b9250505b8080610c1690612443565b91505061091b565b50819250505090565b6007602052816000526040600020602052806000526040600020600091509150505481565b60026000541415610c92576040517f08c379a0000000000000000000000000000000000000000000000000000000008152600401610c899061210b565b60405180910390fd5b60026000819055506000610ca6600161194c565b905060006040518060e001604052808481526020013373ffffffffffffffffffffffffffffffffffffffff1681526020014281526020016000815260200160008152602001838152602001600067ffffffffffffffff811115610d32577f4e487b7100000000000000000000000000000000000000000000000000000000600052604160045260246000fd5b604051908082528060200260200182016040528015610d605781602001602082028036833780820191505090505b50815250905060028190806001815401808255809150506001900390600052602060002090600702016000909190919091506000820151816000019080519060200190610dae929190611a1b565b5060208201518160010160006101000a81548173ffffffffffffffffffffffffffffffffffffffff021916908373ffffffffffffffffffffffffffffffffffffffff16021790555060408201518160020155606082015181600301556080820151816004015560a0820151816005015560c0820151816006019080519060200190610e3a929190611aa1565b505050610e906001600860003373ffffffffffffffffffffffffffffffffffffffff1673ffffffffffffffffffffffffffffffffffffffff1681526020019081526020016000205461195a90919063ffffffff16565b600860003373ffffffffffffffffffffffffffffffffffffffff1673ffffffffffffffffffffffffffffffffffffffff16815260200190815260200160002081905550610edd6001611970565b5050600160008190555050565b60086020528060005260406000206000915090505481565b60026000541415610f48576040517f08c379a0000000000000000000000000000000000000000000000000000000008152600401610f3f9061210b565b60405180910390fd5b600260008190555060008110158015610f65575060028054905081105b610fa4576040517f08c379a0000000000000000000000000000000000000000000000000000000008152600401610f9b906120eb565b60405180910390fd5b600060028281548110610fe0577f4e487b7100000000000000000000000000000000000000000000000000000000600052603260045260246000fd5b9060005260206000209060070201905060003411611033576040517f08c379a000000000000000000000000000000000000000000000000000000000815260040161102a906120cb565b60405180910390fd5b600061106b6103e861105d6003546103e861104e919061231c565b3461198690919063ffffffff16565b61199c90919063ffffffff16565b905061108481836004015461195a90919063ffffffff16565b82600401819055508160010160009054906101000a900473ffffffffffffffffffffffffffffffffffffffff1673ffffffffffffffffffffffffffffffffffffffff166108fc829081150290604051600060405180830381858888f193505050501580156110f6573d6000803e3d6000fd5b5061110e34836003015461195a90919063ffffffff16565b8260030181905550600061112b82346119b290919063ffffffff16565b905060005b83600601805490508110156115e65760006112208560030154611212600660008a8152602001908152602001600020600089600601878154811061119d577f4e487b7100000000000000000000000000000000000000000000000000000000600052603260045260246000fd5b9060005260206000200160009054906101000a900473ffffffffffffffffffffffffffffffffffffffff1673ffffffffffffffffffffffffffffffffffffffff1673ffffffffffffffffffffffffffffffffffffffff168152602001908152602001600020548661198690919063ffffffff16565b61199c90919063ffffffff16565b905061123581846119b290919063ffffffff16565b92506113008160076000898152602001908152602001600020600088600601868154811061128c577f4e487b7100000000000000000000000000000000000000000000000000000000600052603260045260246000fd5b9060005260206000200160009054906101000a900473ffffffffffffffffffffffffffffffffffffffff1673ffffffffffffffffffffffffffffffffffffffff1673ffffffffffffffffffffffffffffffffffffffff1681526020019081526020016000205461195a90919063ffffffff16565b600760008881526020019081526020016000206000876006018581548110611351577f4e487b7100000000000000000000000000000000000000000000000000000000600052603260045260246000fd5b9060005260206000200160009054906101000a900473ffffffffffffffffffffffffffffffffffffffff1673ffffffffffffffffffffffffffffffffffffffff1673ffffffffffffffffffffffffffffffffffffffff1681526020019081526020016000208190555060008311156115d2578460060182815481106113ff577f4e487b7100000000000000000000000000000000000000000000000000000000600052603260045260246000fd5b9060005260206000200160009054906101000a900473ffffffffffffffffffffffffffffffffffffffff1673ffffffffffffffffffffffffffffffffffffffff166108fc829081150290604051600060405180830381858888f1935050505015801561146f573d6000803e3d6000fd5b5061152881600560008860060186815481106114b4577f4e487b7100000000000000000000000000000000000000000000000000000000600052603260045260246000fd5b9060005260206000200160009054906101000a900473ffffffffffffffffffffffffffffffffffffffff1673ffffffffffffffffffffffffffffffffffffffff1673ffffffffffffffffffffffffffffffffffffffff1681526020019081526020016000205461195a90919063ffffffff16565b60056000876006018581548110611568577f4e487b7100000000000000000000000000000000000000000000000000000000600052603260045260246000fd5b9060005260206000200160009054906101000a900473ffffffffffffffffffffffffffffffffffffffff1673ffffffffffffffffffffffffffffffffffffffff1673ffffffffffffffffffffffffffffffffffffffff168152602001908152602001600020819055505b5080806115de90612443565b915050611130565b5082600601339080600181540180825580915050600190039060005260206000200160009091909190916101000a81548173ffffffffffffffffffffffffffffffffffffffff021916908373ffffffffffffffffffffffffffffffffffffffff16021790555061169e34600460003373ffffffffffffffffffffffffffffffffffffffff1673ffffffffffffffffffffffffffffffffffffffff1681526020019081526020016000205461195a90919063ffffffff16565b600460003373ffffffffffffffffffffffffffffffffffffffff1673ffffffffffffffffffffffffffffffffffffffff16815260200190815260200160002081905550611744346006600087815260200190815260200160002060003373ffffffffffffffffffffffffffffffffffffffff1673ffffffffffffffffffffffffffffffffffffffff1681526020019081526020016000205461195a90919063ffffffff16565b6006600086815260200190815260200160002060003373ffffffffffffffffffffffffffffffffffffffff1673ffffffffffffffffffffffffffffffffffffffff16815260200190815260200160002081905550600081111561182c578260010160009054906101000a900473ffffffffffffffffffffffffffffffffffffffff1673ffffffffffffffffffffffffffffffffffffffff166108fc829081150290604051600060405180830381858888f1935050505015801561180b573d6000803e3d6000fd5b5061182381846004015461195a90919063ffffffff16565b83600401819055505b8260028581548110611867577f4e487b7100000000000000000000000000000000000000000000000000000000600052603260045260246000fd5b90600052602060002090600702016000820181600001908054611889906123e0565b611894929190611b2b565b506001820160009054906101000a900473ffffffffffffffffffffffffffffffffffffffff168160010160006101000a81548173ffffffffffffffffffffffffffffffffffffffff021916908373ffffffffffffffffffffffffffffffffffffffff16021790555060028201548160020155600382015481600301556004820154816004015560058201548160050155600682018160060190805461193a929190611bb8565b50905050505050600160008190555050565b600081600001549050919050565b60008183611968919061223b565b905092915050565b6001816000016000828254019250508190555050565b6000818361199491906122c2565b905092915050565b600081836119aa9190612291565b905092915050565b600081836119c0919061231c565b905092915050565b6040518060e0016040528060608152602001600073ffffffffffffffffffffffffffffffffffffffff16815260200160008152602001600081526020016000815260200160008152602001606081525090565b828054611a27906123e0565b90600052602060002090601f016020900481019282611a495760008555611a90565b82601f10611a6257805160ff1916838001178555611a90565b82800160010185558215611a90579182015b82811115611a8f578251825591602001919060010190611a74565b5b509050611a9d9190611c0a565b5090565b828054828255906000526020600020908101928215611b1a579160200282015b82811115611b195782518260006101000a81548173ffffffffffffffffffffffffffffffffffffffff021916908373ffffffffffffffffffffffffffffffffffffffff16021790555091602001919060010190611ac1565b5b509050611b279190611c0a565b5090565b828054611b37906123e0565b90600052602060002090601f016020900481019282611b595760008555611ba7565b82601f10611b6a5780548555611ba7565b82800160010185558215611ba757600052602060002091601f016020900482015b82811115611ba6578254825591600101919060010190611b8b565b5b509050611bb49190611c0a565b5090565b828054828255906000526020600020908101928215611bf95760005260206000209182015b82811115611bf8578254825591600101919060010190611bdd565b5b509050611c069190611c0a565b5090565b5b80821115611c23576000816000905550600101611c0b565b5090565b6000611c3a611c358461216b565b612146565b905082815260208101848484011115611c5257600080fd5b611c5d84828561239e565b509392505050565b600081359050611c74816125d4565b92915050565b600082601f830112611c8b57600080fd5b8135611c9b848260208601611c27565b91505092915050565b600081359050611cb3816125eb565b92915050565b600060208284031215611ccb57600080fd5b6000611cd984828501611c65565b91505092915050565b600060208284031215611cf457600080fd5b600082013567ffffffffffffffff811115611d0e57600080fd5b611d1a84828501611c7a565b91505092915050565b600060208284031215611d3557600080fd5b6000611d4384828501611ca4565b91505092915050565b60008060408385031215611d5f57600080fd5b6000611d6d85828601611ca4565b9250506020611d7e85828601611c65565b9150509250929050565b6000611d948383611db4565b60208301905092915050565b6000611dac8383611f80565b905092915050565b611dbd81612362565b82525050565b611dcc81612362565b82525050565b6000611ddd826121bc565b611de781856121f7565b9350611df28361219c565b8060005b83811015611e23578151611e0a8882611d88565b9750611e15836121dd565b925050600181019050611df6565b5085935050505092915050565b6000611e3b826121c7565b611e458185612208565b935083602082028501611e57856121ac565b8060005b85811015611e935784840389528151611e748582611da0565b9450611e7f836121ea565b925060208a01995050600181019050611e5b565b50829750879550505050505092915050565b6000611eb0826121d2565b611eba8185612219565b9350611eca8185602086016123ad565b611ed381612548565b840191505092915050565b6000611ee9826121d2565b611ef3818561222a565b9350611f038185602086016123ad565b611f0c81612548565b840191505092915050565b6000611f2460198361222a565b9150611f2f82612559565b602082019050919050565b6000611f4760138361222a565b9150611f5282612582565b602082019050919050565b6000611f6a601f8361222a565b9150611f75826125ab565b602082019050919050565b600060e0830160008301518482036000860152611f9d8282611ea5565b9150506020830151611fb26020860182611db4565b506040830151611fc56040860182612023565b506060830151611fd86060860182612023565b506080830151611feb6080860182612023565b5060a0830151611ffe60a0860182612023565b5060c083015184820360c08601526120168282611dd2565b9150508091505092915050565b61202c81612394565b82525050565b61203b81612394565b82525050565b6000602082019050818103600083015261205b8184611e30565b905092915050565b600060c082019050818103600083015261207d8189611ede565b905061208c6020830188611dc3565b6120996040830187612032565b6120a66060830186612032565b6120b36080830185612032565b6120c060a0830184612032565b979650505050505050565b600060208201905081810360008301526120e481611f17565b9050919050565b6000602082019050818103600083015261210481611f3a565b9050919050565b6000602082019050818103600083015261212481611f5d565b9050919050565b60006020820190506121406000830184612032565b92915050565b6000612150612161565b905061215c8282612412565b919050565b6000604051905090565b600067ffffffffffffffff82111561218657612185612519565b5b61218f82612548565b9050602081019050919050565b6000819050602082019050919050565b6000819050602082019050919050565b600081519050919050565b600081519050919050565b600081519050919050565b6000602082019050919050565b6000602082019050919050565b600082825260208201905092915050565b600082825260208201905092915050565b600082825260208201905092915050565b600082825260208201905092915050565b600061224682612394565b915061225183612394565b9250827fffffffffffffffffffffffffffffffffffffffffffffffffffffffffffffffff038211156122865761228561248c565b5b828201905092915050565b600061229c82612394565b91506122a783612394565b9250826122b7576122b66124bb565b5b828204905092915050565b60006122cd82612394565b91506122d883612394565b9250817fffffffffffffffffffffffffffffffffffffffffffffffffffffffffffffffff04831182151516156123115761231061248c565b5b828202905092915050565b600061232782612394565b915061233283612394565b9250828210156123455761234461248c565b5b828203905092915050565b600061235b82612374565b9050919050565b600061236d82612374565b9050919050565b600073ffffffffffffffffffffffffffffffffffffffff82169050919050565b6000819050919050565b82818337600083830152505050565b60005b838110156123cb5780820151818401526020810190506123b0565b838111156123da576000848401525b50505050565b600060028204905060018216806123f857607f821691505b6020821081141561240c5761240b6124ea565b5b50919050565b61241b82612548565b810181811067ffffffffffffffff8211171561243a57612439612519565b5b80604052505050565b600061244e82612394565b91507fffffffffffffffffffffffffffffffffffffffffffffffffffffffffffffffff8214156124815761248061248c565b5b600182019050919050565b7f4e487b7100000000000000000000000000000000000000000000000000000000600052601160045260246000fd5b7f4e487b7100000000000000000000000000000000000000000000000000000000600052601260045260246000fd5b7f4e487b7100000000000000000000000000000000000000000000000000000000600052602260045260246000fd5b7f4e487b7100000000000000000000000000000000000000000000000000000000600052604160045260246000fd5b6000601f19601f8301169050919050565b7f596f75206e65656420746f2073656e6420736f6d652045746800000000000000600082015250565b7f506f737420646f6573206e6f7420657869737400000000000000000000000000600082015250565b7f5265656e7472616e637947756172643a207265656e7472616e742063616c6c00600082015250565b6125dd81612350565b81146125e857600080fd5b50565b6125f481612394565b81146125ff57600080fd5b5056fea2646970667358221220384bf641239db4e3f42cc91e22de3e87082c32a8ae93ab1a1f9e819f35f925e564736f6c63430008040033",
  "linkReferences": {},
  "deployedLinkReferences": {}
}