{
  "_format": "hh-sol-artifact-1",
  "contractName": "Fundraiser",
  "sourceName": "contracts/Fundraiser.sol",
  "abi": [
    {
      "inputs": [],
      "stateMutability": "nonpayable",
      "type": "constructor"
    },
    {
      "inputs": [
        {
          "internalType": "address",
          "name": "",
          "type": "address"
        }
      ],
      "name": "contributions",
      "outputs": [
        {
          "internalType": "uint256",
          "name": "",
          "type": "uint256"
        }
      ],
      "stateMutability": "view",
      "type": "function"
    },
    {
      "inputs": [
        {
          "internalType": "string",
          "name": "_ipfsLink",
          "type": "string"
        }
      ],
      "name": "createPost",
      "outputs": [],
      "stateMutability": "payable",
      "type": "function"
    },
    {
      "inputs": [],
      "name": "getAllPosts",
      "outputs": [
        {
          "components": [
            {
              "internalType": "string",
              "name": "ipfsLink",
              "type": "string"
            },
            {
              "internalType": "address payable",
              "name": "author",
              "type": "address"
            },
            {
              "internalType": "uint256",
              "name": "timestamp",
              "type": "uint256"
            },
            {
              "internalType": "uint256",
              "name": "total",
              "type": "uint256"
            },
            {
              "internalType": "uint256",
              "name": "id",
              "type": "uint256"
            },
            {
              "internalType": "address payable[]",
              "name": "backers",
              "type": "address[]"
            }
          ],
          "internalType": "struct Fundraiser.Post[]",
          "name": "",
          "type": "tuple[]"
        }
      ],
      "stateMutability": "view",
      "type": "function"
    },
    {
      "inputs": [
        {
          "internalType": "address",
          "name": "_address",
          "type": "address"
        }
      ],
      "name": "getNumberOfPosts",
      "outputs": [
        {
          "internalType": "uint256",
          "name": "",
          "type": "uint256"
        }
      ],
      "stateMutability": "view",
      "type": "function"
    },
    {
      "inputs": [
        {
          "internalType": "address",
          "name": "_address",
          "type": "address"
        }
      ],
      "name": "getYourContributions",
      "outputs": [
        {
          "internalType": "uint256",
          "name": "",
          "type": "uint256"
        }
      ],
      "stateMutability": "view",
      "type": "function"
    },
    {
      "inputs": [],
      "name": "getYourCreatedPosts",
      "outputs": [
        {
          "components": [
            {
              "internalType": "string",
              "name": "ipfsLink",
              "type": "string"
            },
            {
              "internalType": "address payable",
              "name": "author",
              "type": "address"
            },
            {
              "internalType": "uint256",
              "name": "timestamp",
              "type": "uint256"
            },
            {
              "internalType": "uint256",
              "name": "total",
              "type": "uint256"
            },
            {
              "internalType": "uint256",
              "name": "id",
              "type": "uint256"
            },
            {
              "internalType": "address payable[]",
              "name": "backers",
              "type": "address[]"
            }
          ],
          "internalType": "struct Fundraiser.Post[]",
          "name": "",
          "type": "tuple[]"
        }
      ],
      "stateMutability": "view",
      "type": "function"
    },
    {
      "inputs": [
        {
          "internalType": "uint256",
          "name": "_id",
          "type": "uint256"
        }
      ],
      "name": "getYourEarnings",
      "outputs": [
        {
          "internalType": "uint256",
          "name": "",
          "type": "uint256"
        }
      ],
      "stateMutability": "view",
      "type": "function"
    },
    {
      "inputs": [
        {
          "internalType": "address",
          "name": "_address",
          "type": "address"
        }
      ],
      "name": "getYourProfit",
      "outputs": [
        {
          "internalType": "uint256",
          "name": "",
          "type": "uint256"
        }
      ],
      "stateMutability": "view",
      "type": "function"
    },
    {
      "inputs": [
        {
          "internalType": "address",
          "name": "",
          "type": "address"
        }
      ],
      "name": "numberOfPosts",
      "outputs": [
        {
          "internalType": "uint256",
          "name": "",
          "type": "uint256"
        }
      ],
      "stateMutability": "view",
      "type": "function"
    },
    {
      "inputs": [
        {
          "internalType": "uint256",
          "name": "",
          "type": "uint256"
        },
        {
          "internalType": "address",
          "name": "",
          "type": "address"
        }
      ],
      "name": "postContributions",
      "outputs": [
        {
          "internalType": "uint256",
          "name": "",
          "type": "uint256"
        }
      ],
      "stateMutability": "view",
      "type": "function"
    },
    {
      "inputs": [
        {
          "internalType": "uint256",
          "name": "",
          "type": "uint256"
        },
        {
          "internalType": "address",
          "name": "",
          "type": "address"
        }
      ],
      "name": "postEarnings",
      "outputs": [
        {
          "internalType": "uint256",
          "name": "",
          "type": "uint256"
        }
      ],
      "stateMutability": "view",
      "type": "function"
    },
    {
      "inputs": [
        {
          "internalType": "uint256",
          "name": "",
          "type": "uint256"
        }
      ],
      "name": "posts",
      "outputs": [
        {
          "internalType": "string",
          "name": "ipfsLink",
          "type": "string"
        },
        {
          "internalType": "address payable",
          "name": "author",
          "type": "address"
        },
        {
          "internalType": "uint256",
          "name": "timestamp",
          "type": "uint256"
        },
        {
          "internalType": "uint256",
          "name": "total",
          "type": "uint256"
        },
        {
          "internalType": "uint256",
          "name": "id",
          "type": "uint256"
        }
      ],
      "stateMutability": "view",
      "type": "function"
    },
    {
      "inputs": [
        {
          "internalType": "address",
          "name": "",
          "type": "address"
        }
      ],
      "name": "profit",
      "outputs": [
        {
          "internalType": "uint256",
          "name": "",
          "type": "uint256"
        }
      ],
      "stateMutability": "view",
      "type": "function"
    },
    {
      "inputs": [],
      "name": "royalty",
      "outputs": [
        {
          "internalType": "uint256",
          "name": "",
          "type": "uint256"
        }
      ],
      "stateMutability": "view",
      "type": "function"
    },
    {
      "inputs": [
        {
          "internalType": "uint256",
          "name": "_id",
          "type": "uint256"
        }
      ],
      "name": "sharePost",
      "outputs": [],
      "stateMutability": "payable",
      "type": "function"
    }
  ],
  "bytecode": "0x6080604052601d60035534801561001557600080fd5b5060016000819055506122598061002d6000396000f3fe6080604052600436106100e85760003560e01c806378d167df1161008a578063c291bf8d11610059578063c291bf8d1461035a578063c7303c6114610397578063efc23e44146103b3578063f5d76320146103f0576100e8565b806378d167df146102785780638bb68aeb146102b557806392020245146102f2578063bbb940e21461032f576100e8565b806329ee566c116100c657806329ee566c146101a857806330561100146101d35780633959ee34146101fe57806342e94c901461023b576100e8565b806302550e4d146100ed5780630b1e7f831461012a578063105e38231461016b575b600080fd5b3480156100f957600080fd5b50610114600480360381019061010f91906118fb565b61040c565b6040516101219190611d4c565b60405180910390f35b34801561013657600080fd5b50610151600480360381019061014c9190611965565b610424565b604051610162959493929190611c92565b60405180910390f35b34801561017757600080fd5b50610192600480360381019061018d919061198e565b610512565b60405161019f9190611d4c565b60405180910390f35b3480156101b457600080fd5b506101bd610537565b6040516101ca9190611d4c565b60405180910390f35b3480156101df57600080fd5b506101e861053d565b6040516101f59190611c70565b60405180910390f35b34801561020a57600080fd5b5061022560048036038101906102209190611965565b610730565b6040516102329190611d4c565b60405180910390f35b34801561024757600080fd5b50610262600480360381019061025d91906118fb565b61078a565b60405161026f9190611d4c565b60405180910390f35b34801561028457600080fd5b5061029f600480360381019061029a91906118fb565b6107a2565b6040516102ac9190611d4c565b60405180910390f35b3480156102c157600080fd5b506102dc60048036038101906102d791906118fb565b6107eb565b6040516102e99190611d4c565b60405180910390f35b3480156102fe57600080fd5b50610319600480360381019061031491906118fb565b610834565b6040516103269190611d4c565b60405180910390f35b34801561033b57600080fd5b5061034461087d565b6040516103519190611c70565b60405180910390f35b34801561036657600080fd5b50610381600480360381019061037c919061198e565b610c0c565b60405161038e9190611d4c565b60405180910390f35b6103b160048036038101906103ac9190611924565b610c31565b005b3480156103bf57600080fd5b506103da60048036038101906103d591906118fb565b610ebe565b6040516103e79190611d4c565b60405180910390f35b61040a60048036038101906104059190611965565b610ed6565b005b60056020528060005260406000206000915090505481565b6002818154811061043457600080fd5b906000526020600020906006020160009150905080600001805461045790612001565b80601f016020809104026020016040519081016040528092919081815260200182805461048390612001565b80156104d05780601f106104a5576101008083540402835291602001916104d0565b820191906000526020600020905b8154815290600101906020018083116104b357829003601f168201915b5050505050908060010160009054906101000a900473ffffffffffffffffffffffffffffffffffffffff16908060020154908060030154908060040154905085565b6006602052816000526040600020602052806000526040600020600091509150505481565b60035481565b60606002805480602002602001604051908101604052809291908181526020016000905b8282101561072757838290600052602060002090600602016040518060c001604052908160008201805461059490612001565b80601f01602080910402602001604051908101604052809291908181526020018280546105c090612001565b801561060d5780601f106105e25761010080835404028352916020019161060d565b820191906000526020600020905b8154815290600101906020018083116105f057829003601f168201915b505050505081526020016001820160009054906101000a900473ffffffffffffffffffffffffffffffffffffffff1673ffffffffffffffffffffffffffffffffffffffff1673ffffffffffffffffffffffffffffffffffffffff1681526020016002820154815260200160038201548152602001600482015481526020016005820180548060200260200160405190810160405280929190818152602001828054801561070f57602002820191906000526020600020905b8160009054906101000a900473ffffffffffffffffffffffffffffffffffffffff1673ffffffffffffffffffffffffffffffffffffffff16815260200190600101908083116106c5575b50505050508152505081526020019060010190610561565b50505050905090565b60006007600083815260200190815260200160002060003373ffffffffffffffffffffffffffffffffffffffff1673ffffffffffffffffffffffffffffffffffffffff168152602001908152602001600020549050919050565b60046020528060005260406000206000915090505481565b6000600860008373ffffffffffffffffffffffffffffffffffffffff1673ffffffffffffffffffffffffffffffffffffffff168152602001908152602001600020549050919050565b6000600460008373ffffffffffffffffffffffffffffffffffffffff1673ffffffffffffffffffffffffffffffffffffffff168152602001908152602001600020549050919050565b6000600560008373ffffffffffffffffffffffffffffffffffffffff1673ffffffffffffffffffffffffffffffffffffffff168152602001908152602001600020549050919050565b6060600061088b6001611674565b67ffffffffffffffff8111156108ca577f4e487b7100000000000000000000000000000000000000000000000000000000600052604160045260246000fd5b60405190808252806020026020018201604052801561090357816020015b6108f06116f0565b8152602001906001900390816108e85790505b5090506000805b600280549050811015610c03573373ffffffffffffffffffffffffffffffffffffffff1660028281548110610968577f4e487b7100000000000000000000000000000000000000000000000000000000600052603260045260246000fd5b906000526020600020906006020160010160009054906101000a900473ffffffffffffffffffffffffffffffffffffffff1673ffffffffffffffffffffffffffffffffffffffff161415610bf057600281815481106109f0577f4e487b7100000000000000000000000000000000000000000000000000000000600052603260045260246000fd5b90600052602060002090600602016040518060c0016040529081600082018054610a1990612001565b80601f0160208091040260200160405190810160405280929190818152602001828054610a4590612001565b8015610a925780601f10610a6757610100808354040283529160200191610a92565b820191906000526020600020905b815481529060010190602001808311610a7557829003601f168201915b505050505081526020016001820160009054906101000a900473ffffffffffffffffffffffffffffffffffffffff1673ffffffffffffffffffffffffffffffffffffffff1673ffffffffffffffffffffffffffffffffffffffff16815260200160028201548152602001600382015481526020016004820154815260200160058201805480602002602001604051908101604052809291908181526020018280548015610b9457602002820191906000526020600020905b8160009054906101000a900473ffffffffffffffffffffffffffffffffffffffff1673ffffffffffffffffffffffffffffffffffffffff1681526020019060010190808311610b4a575b505050505081525050838381518110610bd6577f4e487b7100000000000000000000000000000000000000000000000000000000600052603260045260246000fd5b60200260200101819052508180610bec90612064565b9250505b8080610bfb90612064565b91505061090a565b50819250505090565b6007602052816000526040600020602052806000526040600020600091509150505481565b60026000541415610c77576040517f08c379a0000000000000000000000000000000000000000000000000000000008152600401610c6e90611d2c565b60405180910390fd5b60026000819055506000610c8b6001611674565b905060006040518060c001604052808481526020013373ffffffffffffffffffffffffffffffffffffffff16815260200142815260200160008152602001838152602001600067ffffffffffffffff811115610d10577f4e487b7100000000000000000000000000000000000000000000000000000000600052604160045260246000fd5b604051908082528060200260200182016040528015610d3e5781602001602082028036833780820191505090505b50815250905060028190806001815401808255809150506001900390600052602060002090600602016000909190919091506000820151816000019080519060200190610d8c92919061173c565b5060208201518160010160006101000a81548173ffffffffffffffffffffffffffffffffffffffff021916908373ffffffffffffffffffffffffffffffffffffffff16021790555060408201518160020155606082015181600301556080820151816004015560a0820151816005019080519060200190610e0e9291906117c2565b505050610e646001600860003373ffffffffffffffffffffffffffffffffffffffff1673ffffffffffffffffffffffffffffffffffffffff1681526020019081526020016000205461168290919063ffffffff16565b600860003373ffffffffffffffffffffffffffffffffffffffff1673ffffffffffffffffffffffffffffffffffffffff16815260200190815260200160002081905550610eb16001611698565b5050600160008190555050565b60086020528060005260406000206000915090505481565b60026000541415610f1c576040517f08c379a0000000000000000000000000000000000000000000000000000000008152600401610f1390611d2c565b60405180910390fd5b600260008190555060008110158015610f39575060028054905081105b610f78576040517f08c379a0000000000000000000000000000000000000000000000000000000008152600401610f6f90611d0c565b60405180910390fd5b600060028281548110610fb4577f4e487b7100000000000000000000000000000000000000000000000000000000600052603260045260246000fd5b9060005260206000209060060201905060003411611007576040517f08c379a0000000000000000000000000000000000000000000000000000000008152600401610ffe90611cec565b60405180910390fd5b600061103f6103e86110316003546103e86110229190611f3d565b346116ae90919063ffffffff16565b6116c490919063ffffffff16565b90508160010160009054906101000a900473ffffffffffffffffffffffffffffffffffffffff1673ffffffffffffffffffffffffffffffffffffffff166108fc829081150290604051600060405180830381858888f193505050501580156110ab573d6000803e3d6000fd5b506110c381836003015461168290919063ffffffff16565b826003018190555060006110fa6103e86110ec60035486600301546116ae90919063ffffffff16565b6116c490919063ffffffff16565b905060005b83600501805490508110156114495760006111ef85600301546111e1600660008a8152602001908152602001600020600089600501878154811061116c577f4e487b7100000000000000000000000000000000000000000000000000000000600052603260045260246000fd5b9060005260206000200160009054906101000a900473ffffffffffffffffffffffffffffffffffffffff1673ffffffffffffffffffffffffffffffffffffffff1673ffffffffffffffffffffffffffffffffffffffff16815260200190815260200160002054866116ae90919063ffffffff16565b6116c490919063ffffffff16565b905061120481846116da90919063ffffffff16565b506112ce8160076000898152602001908152602001600020600088600501868154811061125a577f4e487b7100000000000000000000000000000000000000000000000000000000600052603260045260246000fd5b9060005260206000200160009054906101000a900473ffffffffffffffffffffffffffffffffffffffff1673ffffffffffffffffffffffffffffffffffffffff1673ffffffffffffffffffffffffffffffffffffffff1681526020019081526020016000205461168290919063ffffffff16565b60076000888152602001908152602001600020600087600501858154811061131f577f4e487b7100000000000000000000000000000000000000000000000000000000600052603260045260246000fd5b9060005260206000200160009054906101000a900473ffffffffffffffffffffffffffffffffffffffff1673ffffffffffffffffffffffffffffffffffffffff1673ffffffffffffffffffffffffffffffffffffffff168152602001908152602001600020819055508460050182815481106113c4577f4e487b7100000000000000000000000000000000000000000000000000000000600052603260045260246000fd5b9060005260206000200160009054906101000a900473ffffffffffffffffffffffffffffffffffffffff1673ffffffffffffffffffffffffffffffffffffffff166108fc829081150290604051600060405180830381858888f19350505050158015611434573d6000803e3d6000fd5b5050808061144190612064565b9150506110ff565b5082600501339080600181540180825580915050600190039060005260206000200160009091909190916101000a81548173ffffffffffffffffffffffffffffffffffffffff021916908373ffffffffffffffffffffffffffffffffffffffff16021790555061150134600460003373ffffffffffffffffffffffffffffffffffffffff1673ffffffffffffffffffffffffffffffffffffffff1681526020019081526020016000205461168290919063ffffffff16565b600460003373ffffffffffffffffffffffffffffffffffffffff1673ffffffffffffffffffffffffffffffffffffffff168152602001908152602001600020819055506115a7346006600087815260200190815260200160002060003373ffffffffffffffffffffffffffffffffffffffff1673ffffffffffffffffffffffffffffffffffffffff1681526020019081526020016000205461168290919063ffffffff16565b6006600086815260200190815260200160002060003373ffffffffffffffffffffffffffffffffffffffff1673ffffffffffffffffffffffffffffffffffffffff168152602001908152602001600020819055508260010160009054906101000a900473ffffffffffffffffffffffffffffffffffffffff1673ffffffffffffffffffffffffffffffffffffffff166108fc829081150290604051600060405180830381858888f19350505050158015611665573d6000803e3d6000fd5b50505050600160008190555050565b600081600001549050919050565b600081836116909190611e5c565b905092915050565b6001816000016000828254019250508190555050565b600081836116bc9190611ee3565b905092915050565b600081836116d29190611eb2565b905092915050565b600081836116e89190611f3d565b905092915050565b6040518060c0016040528060608152602001600073ffffffffffffffffffffffffffffffffffffffff168152602001600081526020016000815260200160008152602001606081525090565b82805461174890612001565b90600052602060002090601f01602090048101928261176a57600085556117b1565b82601f1061178357805160ff19168380011785556117b1565b828001600101855582156117b1579182015b828111156117b0578251825591602001919060010190611795565b5b5090506117be919061184c565b5090565b82805482825590600052602060002090810192821561183b579160200282015b8281111561183a5782518260006101000a81548173ffffffffffffffffffffffffffffffffffffffff021916908373ffffffffffffffffffffffffffffffffffffffff160217905550916020019190600101906117e2565b5b509050611848919061184c565b5090565b5b8082111561186557600081600090555060010161184d565b5090565b600061187c61187784611d8c565b611d67565b90508281526020810184848401111561189457600080fd5b61189f848285611fbf565b509392505050565b6000813590506118b6816121f5565b92915050565b600082601f8301126118cd57600080fd5b81356118dd848260208601611869565b91505092915050565b6000813590506118f58161220c565b92915050565b60006020828403121561190d57600080fd5b600061191b848285016118a7565b91505092915050565b60006020828403121561193657600080fd5b600082013567ffffffffffffffff81111561195057600080fd5b61195c848285016118bc565b91505092915050565b60006020828403121561197757600080fd5b6000611985848285016118e6565b91505092915050565b600080604083850312156119a157600080fd5b60006119af858286016118e6565b92505060206119c0858286016118a7565b9150509250929050565b60006119d683836119f6565b60208301905092915050565b60006119ee8383611bc2565b905092915050565b6119ff81611f83565b82525050565b611a0e81611f83565b82525050565b6000611a1f82611ddd565b611a298185611e18565b9350611a3483611dbd565b8060005b83811015611a65578151611a4c88826119ca565b9750611a5783611dfe565b925050600181019050611a38565b5085935050505092915050565b6000611a7d82611de8565b611a878185611e29565b935083602082028501611a9985611dcd565b8060005b85811015611ad55784840389528151611ab685826119e2565b9450611ac183611e0b565b925060208a01995050600181019050611a9d565b50829750879550505050505092915050565b6000611af282611df3565b611afc8185611e3a565b9350611b0c818560208601611fce565b611b1581612169565b840191505092915050565b6000611b2b82611df3565b611b358185611e4b565b9350611b45818560208601611fce565b611b4e81612169565b840191505092915050565b6000611b66601983611e4b565b9150611b718261217a565b602082019050919050565b6000611b89601383611e4b565b9150611b94826121a3565b602082019050919050565b6000611bac601f83611e4b565b9150611bb7826121cc565b602082019050919050565b600060c0830160008301518482036000860152611bdf8282611ae7565b9150506020830151611bf460208601826119f6565b506040830151611c076040860182611c52565b506060830151611c1a6060860182611c52565b506080830151611c2d6080860182611c52565b5060a083015184820360a0860152611c458282611a14565b9150508091505092915050565b611c5b81611fb5565b82525050565b611c6a81611fb5565b82525050565b60006020820190508181036000830152611c8a8184611a72565b905092915050565b600060a0820190508181036000830152611cac8188611b20565b9050611cbb6020830187611a05565b611cc86040830186611c61565b611cd56060830185611c61565b611ce26080830184611c61565b9695505050505050565b60006020820190508181036000830152611d0581611b59565b9050919050565b60006020820190508181036000830152611d2581611b7c565b9050919050565b60006020820190508181036000830152611d4581611b9f565b9050919050565b6000602082019050611d616000830184611c61565b92915050565b6000611d71611d82565b9050611d7d8282612033565b919050565b6000604051905090565b600067ffffffffffffffff821115611da757611da661213a565b5b611db082612169565b9050602081019050919050565b6000819050602082019050919050565b6000819050602082019050919050565b600081519050919050565b600081519050919050565b600081519050919050565b6000602082019050919050565b6000602082019050919050565b600082825260208201905092915050565b600082825260208201905092915050565b600082825260208201905092915050565b600082825260208201905092915050565b6000611e6782611fb5565b9150611e7283611fb5565b9250827fffffffffffffffffffffffffffffffffffffffffffffffffffffffffffffffff03821115611ea757611ea66120ad565b5b828201905092915050565b6000611ebd82611fb5565b9150611ec883611fb5565b925082611ed857611ed76120dc565b5b828204905092915050565b6000611eee82611fb5565b9150611ef983611fb5565b9250817fffffffffffffffffffffffffffffffffffffffffffffffffffffffffffffffff0483118215151615611f3257611f316120ad565b5b828202905092915050565b6000611f4882611fb5565b9150611f5383611fb5565b925082821015611f6657611f656120ad565b5b828203905092915050565b6000611f7c82611f95565b9050919050565b6000611f8e82611f95565b9050919050565b600073ffffffffffffffffffffffffffffffffffffffff82169050919050565b6000819050919050565b82818337600083830152505050565b60005b83811015611fec578082015181840152602081019050611fd1565b83811115611ffb576000848401525b50505050565b6000600282049050600182168061201957607f821691505b6020821081141561202d5761202c61210b565b5b50919050565b61203c82612169565b810181811067ffffffffffffffff8211171561205b5761205a61213a565b5b80604052505050565b600061206f82611fb5565b91507fffffffffffffffffffffffffffffffffffffffffffffffffffffffffffffffff8214156120a2576120a16120ad565b5b600182019050919050565b7f4e487b7100000000000000000000000000000000000000000000000000000000600052601160045260246000fd5b7f4e487b7100000000000000000000000000000000000000000000000000000000600052601260045260246000fd5b7f4e487b7100000000000000000000000000000000000000000000000000000000600052602260045260246000fd5b7f4e487b7100000000000000000000000000000000000000000000000000000000600052604160045260246000fd5b6000601f19601f8301169050919050565b7f596f75206e65656420746f2073656e6420736f6d652045746800000000000000600082015250565b7f506f737420646f6573206e6f7420657869737400000000000000000000000000600082015250565b7f5265656e7472616e637947756172643a207265656e7472616e742063616c6c00600082015250565b6121fe81611f71565b811461220957600080fd5b50565b61221581611fb5565b811461222057600080fd5b5056fea2646970667358221220087f72bc86c89ac35270d38cfa0ad34c58416e21e2724d5118331bd8a3ef9d4b64736f6c63430008040033",
  "linkReferences": {},
  "deployedLinkReferences": {}
}