{
  "_format": "hh-sol-artifact-1",
  "contractName": "Fundraiser",
  "sourceName": "contracts/Fundraiser.sol",
  "abi": [
    {
      "inputs": [],
      "stateMutability": "nonpayable",
      "type": "constructor"
    },
    {
      "inputs": [
        {
          "internalType": "address",
          "name": "",
          "type": "address"
        }
      ],
      "name": "contributions",
      "outputs": [
        {
          "internalType": "uint256",
          "name": "",
          "type": "uint256"
        }
      ],
      "stateMutability": "view",
      "type": "function"
    },
    {
      "inputs": [
        {
          "internalType": "string",
          "name": "_ipfsLink",
          "type": "string"
        }
      ],
      "name": "createPost",
      "outputs": [],
      "stateMutability": "payable",
      "type": "function"
    },
    {
      "inputs": [],
      "name": "getAllPosts",
      "outputs": [
        {
          "components": [
            {
              "internalType": "string",
              "name": "ipfsLink",
              "type": "string"
            },
            {
              "internalType": "address payable",
              "name": "author",
              "type": "address"
            },
            {
              "internalType": "uint256",
              "name": "timestamp",
              "type": "uint256"
            },
            {
              "internalType": "uint256",
              "name": "total",
              "type": "uint256"
            },
            {
              "internalType": "uint256",
              "name": "id",
              "type": "uint256"
            },
            {
              "internalType": "address payable[]",
              "name": "backers",
              "type": "address[]"
            }
          ],
          "internalType": "struct Fundraiser.Post[]",
          "name": "",
          "type": "tuple[]"
        }
      ],
      "stateMutability": "view",
      "type": "function"
    },
    {
      "inputs": [],
      "name": "getNumberOfPosts",
      "outputs": [
        {
          "internalType": "uint256",
          "name": "",
          "type": "uint256"
        }
      ],
      "stateMutability": "view",
      "type": "function"
    },
    {
      "inputs": [],
      "name": "getYourContributions",
      "outputs": [
        {
          "internalType": "uint256",
          "name": "",
          "type": "uint256"
        }
      ],
      "stateMutability": "view",
      "type": "function"
    },
    {
      "inputs": [],
      "name": "getYourCreatedPosts",
      "outputs": [
        {
          "components": [
            {
              "internalType": "string",
              "name": "ipfsLink",
              "type": "string"
            },
            {
              "internalType": "address payable",
              "name": "author",
              "type": "address"
            },
            {
              "internalType": "uint256",
              "name": "timestamp",
              "type": "uint256"
            },
            {
              "internalType": "uint256",
              "name": "total",
              "type": "uint256"
            },
            {
              "internalType": "uint256",
              "name": "id",
              "type": "uint256"
            },
            {
              "internalType": "address payable[]",
              "name": "backers",
              "type": "address[]"
            }
          ],
          "internalType": "struct Fundraiser.Post[]",
          "name": "",
          "type": "tuple[]"
        }
      ],
      "stateMutability": "view",
      "type": "function"
    },
    {
      "inputs": [
        {
          "internalType": "uint256",
          "name": "_id",
          "type": "uint256"
        }
      ],
      "name": "getYourEarnings",
      "outputs": [
        {
          "internalType": "uint256",
          "name": "",
          "type": "uint256"
        }
      ],
      "stateMutability": "view",
      "type": "function"
    },
    {
      "inputs": [],
      "name": "getYourProfit",
      "outputs": [
        {
          "internalType": "uint256",
          "name": "",
          "type": "uint256"
        }
      ],
      "stateMutability": "view",
      "type": "function"
    },
    {
      "inputs": [
        {
          "internalType": "address",
          "name": "",
          "type": "address"
        }
      ],
      "name": "numberOfPosts",
      "outputs": [
        {
          "internalType": "uint256",
          "name": "",
          "type": "uint256"
        }
      ],
      "stateMutability": "view",
      "type": "function"
    },
    {
      "inputs": [
        {
          "internalType": "uint256",
          "name": "",
          "type": "uint256"
        },
        {
          "internalType": "address",
          "name": "",
          "type": "address"
        }
      ],
      "name": "postContributions",
      "outputs": [
        {
          "internalType": "uint256",
          "name": "",
          "type": "uint256"
        }
      ],
      "stateMutability": "view",
      "type": "function"
    },
    {
      "inputs": [
        {
          "internalType": "uint256",
          "name": "",
          "type": "uint256"
        },
        {
          "internalType": "address",
          "name": "",
          "type": "address"
        }
      ],
      "name": "postEarnings",
      "outputs": [
        {
          "internalType": "uint256",
          "name": "",
          "type": "uint256"
        }
      ],
      "stateMutability": "view",
      "type": "function"
    },
    {
      "inputs": [
        {
          "internalType": "uint256",
          "name": "",
          "type": "uint256"
        }
      ],
      "name": "posts",
      "outputs": [
        {
          "internalType": "string",
          "name": "ipfsLink",
          "type": "string"
        },
        {
          "internalType": "address payable",
          "name": "author",
          "type": "address"
        },
        {
          "internalType": "uint256",
          "name": "timestamp",
          "type": "uint256"
        },
        {
          "internalType": "uint256",
          "name": "total",
          "type": "uint256"
        },
        {
          "internalType": "uint256",
          "name": "id",
          "type": "uint256"
        }
      ],
      "stateMutability": "view",
      "type": "function"
    },
    {
      "inputs": [
        {
          "internalType": "address",
          "name": "",
          "type": "address"
        }
      ],
      "name": "profit",
      "outputs": [
        {
          "internalType": "uint256",
          "name": "",
          "type": "uint256"
        }
      ],
      "stateMutability": "view",
      "type": "function"
    },
    {
      "inputs": [],
      "name": "royalty",
      "outputs": [
        {
          "internalType": "uint256",
          "name": "",
          "type": "uint256"
        }
      ],
      "stateMutability": "view",
      "type": "function"
    },
    {
      "inputs": [
        {
          "internalType": "uint256",
          "name": "_id",
          "type": "uint256"
        }
      ],
      "name": "sharePost",
      "outputs": [],
      "stateMutability": "payable",
      "type": "function"
    }
  ],
  "bytecode": "0x6080604052601d60035534801561001557600080fd5b50600160008190555061221d8061002d6000396000f3fe6080604052600436106100e85760003560e01c806342e94c901161008a578063c291bf8d11610059578063c291bf8d14610324578063c7303c6114610361578063efc23e441461037d578063f5d76320146103ba576100e8565b806342e94c90146102665780634cc37b61146102a3578063aadabb8e146102ce578063bbb940e2146102f9576100e8565b806329ee566c116100c657806329ee566c146101a857806330561100146101d357806337bbcaa0146101fe5780633959ee3414610229576100e8565b806302550e4d146100ed5780630b1e7f831461012a578063105e38231461016b575b600080fd5b3480156100f957600080fd5b50610114600480360381019061010f91906118bf565b6103d6565b6040516101219190611d10565b60405180910390f35b34801561013657600080fd5b50610151600480360381019061014c9190611929565b6103ee565b604051610162959493929190611c56565b60405180910390f35b34801561017757600080fd5b50610192600480360381019061018d9190611952565b6104dc565b60405161019f9190611d10565b60405180910390f35b3480156101b457600080fd5b506101bd610501565b6040516101ca9190611d10565b60405180910390f35b3480156101df57600080fd5b506101e8610507565b6040516101f59190611c34565b60405180910390f35b34801561020a57600080fd5b506102136106fa565b6040516102209190611d10565b60405180910390f35b34801561023557600080fd5b50610250600480360381019061024b9190611929565b610741565b60405161025d9190611d10565b60405180910390f35b34801561027257600080fd5b5061028d600480360381019061028891906118bf565b61079b565b60405161029a9190611d10565b60405180910390f35b3480156102af57600080fd5b506102b86107b3565b6040516102c59190611d10565b60405180910390f35b3480156102da57600080fd5b506102e36107fa565b6040516102f09190611d10565b60405180910390f35b34801561030557600080fd5b5061030e610841565b60405161031b9190611c34565b60405180910390f35b34801561033057600080fd5b5061034b60048036038101906103469190611952565b610bd0565b6040516103589190611d10565b60405180910390f35b61037b600480360381019061037691906118e8565b610bf5565b005b34801561038957600080fd5b506103a4600480360381019061039f91906118bf565b610e82565b6040516103b19190611d10565b60405180910390f35b6103d460048036038101906103cf9190611929565b610e9a565b005b60056020528060005260406000206000915090505481565b600281815481106103fe57600080fd5b906000526020600020906006020160009150905080600001805461042190611fc5565b80601f016020809104026020016040519081016040528092919081815260200182805461044d90611fc5565b801561049a5780601f1061046f5761010080835404028352916020019161049a565b820191906000526020600020905b81548152906001019060200180831161047d57829003601f168201915b5050505050908060010160009054906101000a900473ffffffffffffffffffffffffffffffffffffffff16908060020154908060030154908060040154905085565b6006602052816000526040600020602052806000526040600020600091509150505481565b60035481565b60606002805480602002602001604051908101604052809291908181526020016000905b828210156106f157838290600052602060002090600602016040518060c001604052908160008201805461055e90611fc5565b80601f016020809104026020016040519081016040528092919081815260200182805461058a90611fc5565b80156105d75780601f106105ac576101008083540402835291602001916105d7565b820191906000526020600020905b8154815290600101906020018083116105ba57829003601f168201915b505050505081526020016001820160009054906101000a900473ffffffffffffffffffffffffffffffffffffffff1673ffffffffffffffffffffffffffffffffffffffff1673ffffffffffffffffffffffffffffffffffffffff168152602001600282015481526020016003820154815260200160048201548152602001600582018054806020026020016040519081016040528092919081815260200182805480156106d957602002820191906000526020600020905b8160009054906101000a900473ffffffffffffffffffffffffffffffffffffffff1673ffffffffffffffffffffffffffffffffffffffff168152602001906001019080831161068f575b5050505050815250508152602001906001019061052b565b50505050905090565b6000600860003373ffffffffffffffffffffffffffffffffffffffff1673ffffffffffffffffffffffffffffffffffffffff16815260200190815260200160002054905090565b60006007600083815260200190815260200160002060003373ffffffffffffffffffffffffffffffffffffffff1673ffffffffffffffffffffffffffffffffffffffff168152602001908152602001600020549050919050565b60046020528060005260406000206000915090505481565b6000600560003373ffffffffffffffffffffffffffffffffffffffff1673ffffffffffffffffffffffffffffffffffffffff16815260200190815260200160002054905090565b6000600460003373ffffffffffffffffffffffffffffffffffffffff1673ffffffffffffffffffffffffffffffffffffffff16815260200190815260200160002054905090565b6060600061084f6001611638565b67ffffffffffffffff81111561088e577f4e487b7100000000000000000000000000000000000000000000000000000000600052604160045260246000fd5b6040519080825280602002602001820160405280156108c757816020015b6108b46116b4565b8152602001906001900390816108ac5790505b5090506000805b600280549050811015610bc7573373ffffffffffffffffffffffffffffffffffffffff166002828154811061092c577f4e487b7100000000000000000000000000000000000000000000000000000000600052603260045260246000fd5b906000526020600020906006020160010160009054906101000a900473ffffffffffffffffffffffffffffffffffffffff1673ffffffffffffffffffffffffffffffffffffffff161415610bb457600281815481106109b4577f4e487b7100000000000000000000000000000000000000000000000000000000600052603260045260246000fd5b90600052602060002090600602016040518060c00160405290816000820180546109dd90611fc5565b80601f0160208091040260200160405190810160405280929190818152602001828054610a0990611fc5565b8015610a565780601f10610a2b57610100808354040283529160200191610a56565b820191906000526020600020905b815481529060010190602001808311610a3957829003601f168201915b505050505081526020016001820160009054906101000a900473ffffffffffffffffffffffffffffffffffffffff1673ffffffffffffffffffffffffffffffffffffffff1673ffffffffffffffffffffffffffffffffffffffff16815260200160028201548152602001600382015481526020016004820154815260200160058201805480602002602001604051908101604052809291908181526020018280548015610b5857602002820191906000526020600020905b8160009054906101000a900473ffffffffffffffffffffffffffffffffffffffff1673ffffffffffffffffffffffffffffffffffffffff1681526020019060010190808311610b0e575b505050505081525050838381518110610b9a577f4e487b7100000000000000000000000000000000000000000000000000000000600052603260045260246000fd5b60200260200101819052508180610bb090612028565b9250505b8080610bbf90612028565b9150506108ce565b50819250505090565b6007602052816000526040600020602052806000526040600020600091509150505481565b60026000541415610c3b576040517f08c379a0000000000000000000000000000000000000000000000000000000008152600401610c3290611cf0565b60405180910390fd5b6002600081905550610c4d6001611646565b6000610c596001611638565b905060006040518060c001604052808481526020013373ffffffffffffffffffffffffffffffffffffffff16815260200142815260200160008152602001838152602001600067ffffffffffffffff811115610cde577f4e487b7100000000000000000000000000000000000000000000000000000000600052604160045260246000fd5b604051908082528060200260200182016040528015610d0c5781602001602082028036833780820191505090505b50815250905060028190806001815401808255809150506001900390600052602060002090600602016000909190919091506000820151816000019080519060200190610d5a929190611700565b5060208201518160010160006101000a81548173ffffffffffffffffffffffffffffffffffffffff021916908373ffffffffffffffffffffffffffffffffffffffff16021790555060408201518160020155606082015181600301556080820151816004015560a0820151816005019080519060200190610ddc929190611786565b505050610e326001600860003373ffffffffffffffffffffffffffffffffffffffff1673ffffffffffffffffffffffffffffffffffffffff1681526020019081526020016000205461165c90919063ffffffff16565b600860003373ffffffffffffffffffffffffffffffffffffffff1673ffffffffffffffffffffffffffffffffffffffff168152602001908152602001600020819055505050600160008190555050565b60086020528060005260406000206000915090505481565b60026000541415610ee0576040517f08c379a0000000000000000000000000000000000000000000000000000000008152600401610ed790611cf0565b60405180910390fd5b6002600081905550600081118015610efd57506002805490508111155b610f3c576040517f08c379a0000000000000000000000000000000000000000000000000000000008152600401610f3390611cd0565b60405180910390fd5b600060028281548110610f78577f4e487b7100000000000000000000000000000000000000000000000000000000600052603260045260246000fd5b9060005260206000209060060201905060003411610fcb576040517f08c379a0000000000000000000000000000000000000000000000000000000008152600401610fc290611cb0565b60405180910390fd5b60006110036103e8610ff56003546103e8610fe69190611f01565b3461167290919063ffffffff16565b61168890919063ffffffff16565b90508160010160009054906101000a900473ffffffffffffffffffffffffffffffffffffffff1673ffffffffffffffffffffffffffffffffffffffff166108fc829081150290604051600060405180830381858888f1935050505015801561106f573d6000803e3d6000fd5b5061108781836003015461165c90919063ffffffff16565b826003018190555060006110be6103e86110b0600354866003015461167290919063ffffffff16565b61168890919063ffffffff16565b905060005b836005018054905081101561140d5760006111b385600301546111a5600660008a81526020019081526020016000206000896005018781548110611130577f4e487b7100000000000000000000000000000000000000000000000000000000600052603260045260246000fd5b9060005260206000200160009054906101000a900473ffffffffffffffffffffffffffffffffffffffff1673ffffffffffffffffffffffffffffffffffffffff1673ffffffffffffffffffffffffffffffffffffffff168152602001908152602001600020548661167290919063ffffffff16565b61168890919063ffffffff16565b90506111c8818461169e90919063ffffffff16565b506112928160076000898152602001908152602001600020600088600501868154811061121e577f4e487b7100000000000000000000000000000000000000000000000000000000600052603260045260246000fd5b9060005260206000200160009054906101000a900473ffffffffffffffffffffffffffffffffffffffff1673ffffffffffffffffffffffffffffffffffffffff1673ffffffffffffffffffffffffffffffffffffffff1681526020019081526020016000205461165c90919063ffffffff16565b6007600088815260200190815260200160002060008760050185815481106112e3577f4e487b7100000000000000000000000000000000000000000000000000000000600052603260045260246000fd5b9060005260206000200160009054906101000a900473ffffffffffffffffffffffffffffffffffffffff1673ffffffffffffffffffffffffffffffffffffffff1673ffffffffffffffffffffffffffffffffffffffff16815260200190815260200160002081905550846005018281548110611388577f4e487b7100000000000000000000000000000000000000000000000000000000600052603260045260246000fd5b9060005260206000200160009054906101000a900473ffffffffffffffffffffffffffffffffffffffff1673ffffffffffffffffffffffffffffffffffffffff166108fc829081150290604051600060405180830381858888f193505050501580156113f8573d6000803e3d6000fd5b5050808061140590612028565b9150506110c3565b5082600501339080600181540180825580915050600190039060005260206000200160009091909190916101000a81548173ffffffffffffffffffffffffffffffffffffffff021916908373ffffffffffffffffffffffffffffffffffffffff1602179055506114c534600460003373ffffffffffffffffffffffffffffffffffffffff1673ffffffffffffffffffffffffffffffffffffffff1681526020019081526020016000205461165c90919063ffffffff16565b600460003373ffffffffffffffffffffffffffffffffffffffff1673ffffffffffffffffffffffffffffffffffffffff1681526020019081526020016000208190555061156b346006600087815260200190815260200160002060003373ffffffffffffffffffffffffffffffffffffffff1673ffffffffffffffffffffffffffffffffffffffff1681526020019081526020016000205461165c90919063ffffffff16565b6006600086815260200190815260200160002060003373ffffffffffffffffffffffffffffffffffffffff1673ffffffffffffffffffffffffffffffffffffffff168152602001908152602001600020819055508260010160009054906101000a900473ffffffffffffffffffffffffffffffffffffffff1673ffffffffffffffffffffffffffffffffffffffff166108fc829081150290604051600060405180830381858888f19350505050158015611629573d6000803e3d6000fd5b50505050600160008190555050565b600081600001549050919050565b6001816000016000828254019250508190555050565b6000818361166a9190611e20565b905092915050565b600081836116809190611ea7565b905092915050565b600081836116969190611e76565b905092915050565b600081836116ac9190611f01565b905092915050565b6040518060c0016040528060608152602001600073ffffffffffffffffffffffffffffffffffffffff168152602001600081526020016000815260200160008152602001606081525090565b82805461170c90611fc5565b90600052602060002090601f01602090048101928261172e5760008555611775565b82601f1061174757805160ff1916838001178555611775565b82800160010185558215611775579182015b82811115611774578251825591602001919060010190611759565b5b5090506117829190611810565b5090565b8280548282559060005260206000209081019282156117ff579160200282015b828111156117fe5782518260006101000a81548173ffffffffffffffffffffffffffffffffffffffff021916908373ffffffffffffffffffffffffffffffffffffffff160217905550916020019190600101906117a6565b5b50905061180c9190611810565b5090565b5b80821115611829576000816000905550600101611811565b5090565b600061184061183b84611d50565b611d2b565b90508281526020810184848401111561185857600080fd5b611863848285611f83565b509392505050565b60008135905061187a816121b9565b92915050565b600082601f83011261189157600080fd5b81356118a184826020860161182d565b91505092915050565b6000813590506118b9816121d0565b92915050565b6000602082840312156118d157600080fd5b60006118df8482850161186b565b91505092915050565b6000602082840312156118fa57600080fd5b600082013567ffffffffffffffff81111561191457600080fd5b61192084828501611880565b91505092915050565b60006020828403121561193b57600080fd5b6000611949848285016118aa565b91505092915050565b6000806040838503121561196557600080fd5b6000611973858286016118aa565b92505060206119848582860161186b565b9150509250929050565b600061199a83836119ba565b60208301905092915050565b60006119b28383611b86565b905092915050565b6119c381611f47565b82525050565b6119d281611f47565b82525050565b60006119e382611da1565b6119ed8185611ddc565b93506119f883611d81565b8060005b83811015611a29578151611a10888261198e565b9750611a1b83611dc2565b9250506001810190506119fc565b5085935050505092915050565b6000611a4182611dac565b611a4b8185611ded565b935083602082028501611a5d85611d91565b8060005b85811015611a995784840389528151611a7a85826119a6565b9450611a8583611dcf565b925060208a01995050600181019050611a61565b50829750879550505050505092915050565b6000611ab682611db7565b611ac08185611dfe565b9350611ad0818560208601611f92565b611ad98161212d565b840191505092915050565b6000611aef82611db7565b611af98185611e0f565b9350611b09818560208601611f92565b611b128161212d565b840191505092915050565b6000611b2a601983611e0f565b9150611b358261213e565b602082019050919050565b6000611b4d601383611e0f565b9150611b5882612167565b602082019050919050565b6000611b70601f83611e0f565b9150611b7b82612190565b602082019050919050565b600060c0830160008301518482036000860152611ba38282611aab565b9150506020830151611bb860208601826119ba565b506040830151611bcb6040860182611c16565b506060830151611bde6060860182611c16565b506080830151611bf16080860182611c16565b5060a083015184820360a0860152611c0982826119d8565b9150508091505092915050565b611c1f81611f79565b82525050565b611c2e81611f79565b82525050565b60006020820190508181036000830152611c4e8184611a36565b905092915050565b600060a0820190508181036000830152611c708188611ae4565b9050611c7f60208301876119c9565b611c8c6040830186611c25565b611c996060830185611c25565b611ca66080830184611c25565b9695505050505050565b60006020820190508181036000830152611cc981611b1d565b9050919050565b60006020820190508181036000830152611ce981611b40565b9050919050565b60006020820190508181036000830152611d0981611b63565b9050919050565b6000602082019050611d256000830184611c25565b92915050565b6000611d35611d46565b9050611d418282611ff7565b919050565b6000604051905090565b600067ffffffffffffffff821115611d6b57611d6a6120fe565b5b611d748261212d565b9050602081019050919050565b6000819050602082019050919050565b6000819050602082019050919050565b600081519050919050565b600081519050919050565b600081519050919050565b6000602082019050919050565b6000602082019050919050565b600082825260208201905092915050565b600082825260208201905092915050565b600082825260208201905092915050565b600082825260208201905092915050565b6000611e2b82611f79565b9150611e3683611f79565b9250827fffffffffffffffffffffffffffffffffffffffffffffffffffffffffffffffff03821115611e6b57611e6a612071565b5b828201905092915050565b6000611e8182611f79565b9150611e8c83611f79565b925082611e9c57611e9b6120a0565b5b828204905092915050565b6000611eb282611f79565b9150611ebd83611f79565b9250817fffffffffffffffffffffffffffffffffffffffffffffffffffffffffffffffff0483118215151615611ef657611ef5612071565b5b828202905092915050565b6000611f0c82611f79565b9150611f1783611f79565b925082821015611f2a57611f29612071565b5b828203905092915050565b6000611f4082611f59565b9050919050565b6000611f5282611f59565b9050919050565b600073ffffffffffffffffffffffffffffffffffffffff82169050919050565b6000819050919050565b82818337600083830152505050565b60005b83811015611fb0578082015181840152602081019050611f95565b83811115611fbf576000848401525b50505050565b60006002820490506001821680611fdd57607f821691505b60208210811415611ff157611ff06120cf565b5b50919050565b6120008261212d565b810181811067ffffffffffffffff8211171561201f5761201e6120fe565b5b80604052505050565b600061203382611f79565b91507fffffffffffffffffffffffffffffffffffffffffffffffffffffffffffffffff82141561206657612065612071565b5b600182019050919050565b7f4e487b7100000000000000000000000000000000000000000000000000000000600052601160045260246000fd5b7f4e487b7100000000000000000000000000000000000000000000000000000000600052601260045260246000fd5b7f4e487b7100000000000000000000000000000000000000000000000000000000600052602260045260246000fd5b7f4e487b7100000000000000000000000000000000000000000000000000000000600052604160045260246000fd5b6000601f19601f8301169050919050565b7f596f75206e65656420746f2073656e6420736f6d652045746800000000000000600082015250565b7f506f737420646f6573206e6f7420657869737400000000000000000000000000600082015250565b7f5265656e7472616e637947756172643a207265656e7472616e742063616c6c00600082015250565b6121c281611f35565b81146121cd57600080fd5b50565b6121d981611f79565b81146121e457600080fd5b5056fea26469706673582212205806f8e55b9e0e95a8dad25b0744f9349992231aaee06d44394901d2e2a214a864736f6c63430008040033",
  "linkReferences": {},
  "deployedLinkReferences": {}
}